{
  "contractName": "Booking",
  "abi": [
    {
      "inputs": [],
      "payable": false,
      "stateMutability": "nonpayable",
      "type": "constructor"
    },
    {
      "anonymous": false,
      "inputs": [
        {
          "indexed": false,
          "internalType": "uint256",
          "name": "id",
          "type": "uint256"
        },
        {
          "indexed": false,
          "internalType": "string",
          "name": "company",
          "type": "string"
        },
        {
          "indexed": false,
          "internalType": "address",
          "name": "by",
          "type": "address"
        }
      ],
      "name": "bookingCancelled",
      "type": "event"
    },
    {
      "anonymous": false,
      "inputs": [
        {
          "indexed": false,
          "internalType": "uint256",
          "name": "id",
          "type": "uint256"
        },
        {
          "indexed": false,
          "internalType": "string",
          "name": "company",
          "type": "string"
        },
        {
          "indexed": false,
          "internalType": "address",
          "name": "by",
          "type": "address"
        },
        {
          "indexed": false,
          "internalType": "uint256",
          "name": "at",
          "type": "uint256"
        }
      ],
      "name": "roomBooked",
      "type": "event"
    },
    {
      "constant": true,
      "inputs": [],
      "name": "roomCount",
      "outputs": [
        {
          "internalType": "uint256",
          "name": "",
          "type": "uint256"
        }
      ],
      "payable": false,
      "stateMutability": "view",
      "type": "function"
    },
    {
      "constant": true,
      "inputs": [
        {
          "internalType": "uint256",
          "name": "",
          "type": "uint256"
        }
      ],
      "name": "rooms",
      "outputs": [
        {
          "internalType": "uint256",
          "name": "id",
          "type": "uint256"
        },
        {
          "internalType": "string",
          "name": "company",
          "type": "string"
        },
        {
          "internalType": "bool",
          "name": "booked",
          "type": "bool"
        },
        {
          "internalType": "address",
          "name": "bookedBy",
          "type": "address"
        },
        {
          "internalType": "uint256",
          "name": "bookedAt",
          "type": "uint256"
        }
      ],
      "payable": false,
      "stateMutability": "view",
      "type": "function"
    },
    {
      "constant": false,
      "inputs": [
        {
          "internalType": "uint256",
          "name": "_id",
          "type": "uint256"
        },
        {
          "internalType": "uint256",
          "name": "_time",
          "type": "uint256"
        }
      ],
      "name": "book",
      "outputs": [],
      "payable": false,
      "stateMutability": "nonpayable",
      "type": "function"
    },
    {
      "constant": false,
      "inputs": [
        {
          "internalType": "uint256",
          "name": "_id",
          "type": "uint256"
        }
      ],
      "name": "cancel",
      "outputs": [],
      "payable": false,
      "stateMutability": "nonpayable",
      "type": "function"
    }
  ],
  "bytecode": "0x60806040526000805534801561001457600080fd5b5060008090505b60148110156100b9576100ac600a821061006a576040518060400160405280600581526020017f50455053490000000000000000000000000000000000000000000000000000008152506100a1565b6040518060400160405280600481526020017f434f4b45000000000000000000000000000000000000000000000000000000008152505b6100bf60201b60201c565b808060010191505061001b565b5061026b565b6040518060a001604052806000548152602001828152602001600015158152602001600073ffffffffffffffffffffffffffffffffffffffff1681526020016000815250600160008054815260200190815260200160002060008201518160000155602082015181600101908051906020019061013d9291906101c6565b5060408201518160020160006101000a81548160ff02191690831515021790555060608201518160020160016101000a81548173ffffffffffffffffffffffffffffffffffffffff021916908373ffffffffffffffffffffffffffffffffffffffff16021790555060808201518160030155905050600080815480929190600101919050555050565b828054600181600116156101000203166002900490600052602060002090601f016020900481019282601f1061020757805160ff1916838001178555610235565b82800160010185558215610235579182015b82811115610234578251825591602001919060010190610219565b5b5090506102429190610246565b5090565b61026891905b8082111561026457600081600090555060010161024c565b5090565b90565b610b038061027a6000396000f3fe608060405234801561001057600080fd5b506004361061004b5760003560e01c80624ef6c6146100505780631bae0ac81461008857806340e58ee51461017b578063df93a4e3146101a9575b600080fd5b6100866004803603604081101561006657600080fd5b8101908080359060200190929190803590602001909291905050506101c7565b005b6100b46004803603602081101561009e57600080fd5b8101908080359060200190929190505050610505565b6040518086815260200180602001851515151581526020018473ffffffffffffffffffffffffffffffffffffffff1673ffffffffffffffffffffffffffffffffffffffff168152602001838152602001828103825286818151815260200191508051906020019080838360005b8381101561013c578082015181840152602081019050610121565b50505050905090810190601f1680156101695780820380516001836020036101000a031916815260200191505b50965050505050505060405180910390f35b6101a76004803603602081101561019157600080fd5b8101908080359060200190929190505050610600565b005b6101b16109dc565b6040518082815260200191505060405180910390f35b6101cf6109e2565b600160008481526020019081526020016000206040518060a001604052908160008201548152602001600182018054600181600116156101000203166002900480601f0160208091040260200160405190810160405280929190818152602001828054600181600116156101000203166002900480156102905780601f1061026557610100808354040283529160200191610290565b820191906000526020600020905b81548152906001019060200180831161027357829003601f168201915b505050505081526020016002820160009054906101000a900460ff161515151581526020016002820160019054906101000a900473ffffffffffffffffffffffffffffffffffffffff1673ffffffffffffffffffffffffffffffffffffffff1673ffffffffffffffffffffffffffffffffffffffff168152602001600382015481525050905080604001511581604001901515908115158152505033816060019073ffffffffffffffffffffffffffffffffffffffff16908173ffffffffffffffffffffffffffffffffffffffff16815250508181608001818152505080600160008581526020019081526020016000206000820151816000015560208201518160010190805190602001906103a7929190610a29565b5060408201518160020160006101000a81548160ff02191690831515021790555060608201518160020160016101000a81548173ffffffffffffffffffffffffffffffffffffffff021916908373ffffffffffffffffffffffffffffffffffffffff160217905550608082015181600301559050507ff517d9b4572b9b492d4302dd97f652775e9f83e6456317ac95755550d7c69fbf838260200151338560405180858152602001806020018473ffffffffffffffffffffffffffffffffffffffff1673ffffffffffffffffffffffffffffffffffffffff168152602001838152602001828103825285818151815260200191508051906020019080838360005b838110156104c35780820151818401526020810190506104a8565b50505050905090810190601f1680156104f05780820380516001836020036101000a031916815260200191505b509550505050505060405180910390a1505050565b6001602052806000526040600020600091509050806000015490806001018054600181600116156101000203166002900480601f0160208091040260200160405190810160405280929190818152602001828054600181600116156101000203166002900480156105b75780601f1061058c576101008083540402835291602001916105b7565b820191906000526020600020905b81548152906001019060200180831161059a57829003601f168201915b5050505050908060020160009054906101000a900460ff16908060020160019054906101000a900473ffffffffffffffffffffffffffffffffffffffff16908060030154905085565b6106086109e2565b600160008381526020019081526020016000206040518060a001604052908160008201548152602001600182018054600181600116156101000203166002900480601f0160208091040260200160405190810160405280929190818152602001828054600181600116156101000203166002900480156106c95780601f1061069e576101008083540402835291602001916106c9565b820191906000526020600020905b8154815290600101906020018083116106ac57829003601f168201915b505050505081526020016002820160009054906101000a900460ff161515151581526020016002820160019054906101000a900473ffffffffffffffffffffffffffffffffffffffff1673ffffffffffffffffffffffffffffffffffffffff1673ffffffffffffffffffffffffffffffffffffffff1681526020016003820154815250509050806060015173ffffffffffffffffffffffffffffffffffffffff163373ffffffffffffffffffffffffffffffffffffffff16146107f4576040517f08c379a000000000000000000000000000000000000000000000000000000000815260040180806020018281038252601d8152602001807f596f7520686176656e277420626f6f6b6564207468697320726f6f6d2100000081525060200191505060405180910390fd5b8060400151158160400190151590811515815250506000816060019073ffffffffffffffffffffffffffffffffffffffff16908173ffffffffffffffffffffffffffffffffffffffff168152505060008160800181815250508060016000848152602001908152602001600020600082015181600001556020820151816001019080519060200190610887929190610a29565b5060408201518160020160006101000a81548160ff02191690831515021790555060608201518160020160016101000a81548173ffffffffffffffffffffffffffffffffffffffff021916908373ffffffffffffffffffffffffffffffffffffffff160217905550608082015181600301559050507f5fe879e96b9a5c32fe6df1e5f8cd946be2f191e771a7143298b26b3dcd34421e8282602001513360405180848152602001806020018373ffffffffffffffffffffffffffffffffffffffff1673ffffffffffffffffffffffffffffffffffffffff168152602001828103825284818151815260200191508051906020019080838360005b8381101561099c578082015181840152602081019050610981565b50505050905090810190601f1680156109c95780820380516001836020036101000a031916815260200191505b5094505050505060405180910390a15050565b60005481565b6040518060a001604052806000815260200160608152602001600015158152602001600073ffffffffffffffffffffffffffffffffffffffff168152602001600081525090565b828054600181600116156101000203166002900490600052602060002090601f016020900481019282601f10610a6a57805160ff1916838001178555610a98565b82800160010185558215610a98579182015b82811115610a97578251825591602001919060010190610a7c565b5b509050610aa59190610aa9565b5090565b610acb91905b80821115610ac7576000816000905550600101610aaf565b5090565b9056fea265627a7a72315820fca486cda29117812b28cc93f02f8e092abd651e207e2baebb5d6a0a1331889a64736f6c63430005100032",
  "source": "// SPDX-License-Identifier: MIT\npragma solidity >=0.4.22 <0.9.0;\n\ncontract Booking {\n    uint256 public roomCount = 0;\n\n    struct Room {\n        uint256 id;\n        string company;\n        bool booked;\n        address bookedBy;\n        uint256 bookedAt;\n    }\n\n    event roomBooked(uint256 id, string company, address by, uint256 at);\n    event bookingCancelled(uint256 id, string company, address by);\n\n    mapping(uint256 => Room) public rooms;\n\n    constructor() public {\n        for (uint256 i = 0; i < 20; i++) {\n            createRoom(i < 10 ? \"COKE\" : \"PEPSI\");\n        }\n    }\n\n    function createRoom(string memory _company) private {\n        rooms[roomCount] = Room(roomCount, _company, false, address(0), 0);\n        roomCount++;\n    }\n\n    function book(uint256 _id, uint256 _time) public {\n        Room memory _room = rooms[_id];\n        _room.booked = !_room.booked;\n        _room.bookedBy = msg.sender;\n        _room.bookedAt = _time;\n        rooms[_id] = _room;\n        emit roomBooked(_id, _room.company, msg.sender, _time);\n    }\n\n    function cancel(uint256 _id) public {\n        Room memory _room = rooms[_id];\n        require(msg.sender == _room.bookedBy, \"You haven't booked this room!\");\n        _room.booked = !_room.booked;\n        _room.bookedBy = address(0);\n        _room.bookedAt = 0;\n        rooms[_id] = _room;\n        emit bookingCancelled(_id, _room.company, msg.sender);\n    }\n}\n",
  "sourcePath": "/Users/johann.bich/project/perso/booking/booking-contract/contracts/Booking.sol",
  "compiler": {
    "name": "solc",
    "version": "0.5.16+commit.9c3226ce.Emscripten.clang"
  },
  "schemaVersion": "3.4.3",
  "updatedAt": "2021-10-08T07:03:11.498Z",
  "networkType": "ethereum",
  "devdoc": {
    "methods": {}
  },
  "userdoc": {
    "methods": {}
  }
}